:0400000031EF00F0EC
:100008004E82E1CF20F0E2CF21F0D9CF22F0DACF33
:1000180023F0F3CF24F0F4CF25F0F6CF26F0F7CF76
:1000280027F0F8CF28F0F5CF29F012EC06F029C018
:10003800F5FF28C0F8FF27C0F7FF26C0F6FF25C048
:10004800F4FF24C0F3FF23C0DAFF22C0D9FF21C088
:0E005800E2FF20C0E1FF4E921100C6EF14F04F
:1008000000C30809083D086B0834034C0075006EEE
:100810000064007300740072006F006D00200054CB
:100820000065006300680000000000000000000098
:10083000000000000000000000000000002E034D3A
:10084000006900630072006F0020004D00690078AD
:1008500000650072000000000000000000000000C1
:100860000000000000000000000000090229000153
:100870000100C03209040000020300000009211138
:10088000010001221D000705810340000107050149
:10089000034000010600FF0901A1011901294015CB
:1008A0000026FF007508954081001901294091003C
:1008B000C01201000200000008D8043F000001013E
:1008C000020001040309040004012205D8A46BEF0F
:1008D00004F06DEF04F089EF04F020511F0B0009C4
:1008E000D8A475EF04F077EF04F089EF04F000016D
:1008F0006B8F030E04012119D8A481EF04F083EF5C
:1009000004F087EF04F0010E416E89EF04F0000E51
:10091000416E2251D8A48FEF04F091EF04F011EF53
:1009200006F020511F0B020AD8A499EF04F09BEFA8
:1009300004F011EF06F024510F0B0009D8B4A3EF17
:1009400004F0A5EF04F011EF06F024510F0B156E23
:10095000020E1560AEEF04F0B0EF04F011EF06F0F8
:10096000200E4418D8A4B7EF04F0B9EF04F011EF4B
:1009700006F000016B8F040124BFC1EF04F0C3EF48
:1009800004F0E0EF04F024510F0B156E1550020D2A
:10099000720EF324D96E000EF420DA6EDECF1AF058
:1009A000DDCF1BF024510F0B156E166A7A0E15243D
:1009B000D96E000E1620DA6EDF50196EFBEF04F0D0
:1009C00024510F0B156E1550020D6E0EF324D96EC7
:1009D000000EF420DA6EDECF1AF0DDCF1BF02451CA
:1009E0000F0B156E166A7C0E1524D96E000E16209C
:1009F000DA6EDF50196E19B000EF05F002EF05F066
:100A00000AEF05F0FB0E1A141A6EFF0E1B141B6E74
:100A10000FEF05F0040E1A101A6E1B501B6E24BF48
:100A200014EF05F016EF05F027EF05F024510F0B3A
:100A3000156E1550020D720EF324D96E000EF420BF
:100A4000DA6E1AC0DEFF1BC0DDFF36EF05F0245161
:100A50000F0B156E1550020D6E0EF324D96E000E9D
:100A6000F420DA6E1AC0DEFF1BC0DDFF030E211971
:100A7000D8A43DEF05F03FEF05F079EF05F01AC07F
:100A8000D9FF1BC0DAFFDFAE48EF05F04AEF05F0F3
:100A90006BEF05F024BF4FEF05F051EF05F05FEF6E
:100AA00005F024510F0B156E166A7A0E1524D96EB7
:100AB000000E1620DA6E0001DF826BEF05F0245184
:100AC0000F0B156E166A7C0E1524D96E000E1620BB
:100AD000DA6E0001DF821AC0D9FF1BC0DAFF000EF8
:100AE000DB841AC0D9FF1BC0DAFF000EDB8E11EFCA
:100AF00006F0040E1A181A6E1B501B6E1AC0D9FF8E
:100B00001BC0DAFFDFAE87EF05F089EF05F0A5EF38
:100B100005F01AC0D9FF1BC0DAFF7F0EDF161AC01E
:100B2000D9FF1BC0DAFF000EDB8C000E0E6E050E27
:100B30000D6E1AC00FF01BC010F0000E126E020EE8
:100B4000116EAFEC12F0ABEF05F01AC0D9FF1BC06D
:100B5000DAFF000EDB8C040E1A181A6E1B501B6E87
:100B600019B2B5EF05F0B7EF05F0C2EF05F01AC006
:100B7000D9FF1BC0DAFFDFAEC0EF05F0C2EF05F012
:100B8000FAEF05F0040124BFC8EF05F0CAEF05F045
:100B9000D8EF05F024510F0B156E166A7A0E152446
:100BA000D96E000E1620DA6E0001DF92E4EF05F038
:100BB00024510F0B156E166A7C0E1524D96E000E8B
:100BC0001620DA6E0001DF921AC0D9FF1BC0DAFFCF
:100BD0003B0EDF16000E0E6E050E0D6E1AC00FF0E6
:100BE0001BC010F0000E126E020E116EAFEC12F070
:100BF00000EF06F01AC0D9FF1BC0DAFF3B0EDF166C
:100C0000040124510F0B156E166A6A0E1524176E17
:100C10000F0E1620186E17C0D9FF18C0DAFFFE0E8F
:100C2000DF1612004404D8A418EF06F01AEF06F0FD
:100C300027EF06F060BA1FEF06F021EF06F027EF6E
:100C400006F0000E656E64806488020E446E65A432
:100C50002CEF06F02EEF06F038EF06F064A433EF29
:100C600006F035EF06F038EF06F065940CEC15F061
:100C700060A23DEF06F03FEF06F042EF06F0A494CD
:100C800025EF07F065A047EF06F049EF06F056EFB5
:100C900006F064A04EEF06F050EF06F056EF06F0B7
:100CA0005CEC0BF0A384040E446E659065A85BEFCA
:100CB00006F05DEF06F066EF06F064A862EF06F05E
:100CC00064EF06F066EF06F05EEC15F065AC6BEFD6
:100CD00006F06DEF06F098EF06F064AC72EF06F0E8
:100CE00074EF06F082EF06F0000E0E6E730E0D6EBE
:100CF000000E0F6E000E106E000E126E010E116EC1
:100D0000AFEC12F0659C45EC15F03D50D8B48BEF7C
:100D100006F08DEF06F08EEF06F03D063D50D8A4AC
:100D200094EF06F096EF06F098EF06F0B5EC10F0B1
:100D300065AA9DEF06F09FEF06F0A8EF06F064AA03
:100D4000A4EF06F0A6EF06F0A8EF06F048EC14F0CA
:100D500065A2ADEF06F0AFEF06F0C5EF06F064A2B6
:100D6000B4EF06F0B6EF06F0C5EF06F07F0E0E6E9C
:100D70000D68000E0F6E000E106E000E126E010E4A
:100D8000116EAFEC12F0000E676E040E4460CBEFF4
:100D900006F0CDEF06F0D0EF06F0A49425EF07F0B3
:100DA00064A6D5EF06F0D7EF06F024EF07F0000EAB
:100DB0001F6E65A6DEEF06F0E0EF06F024EF07F009
:100DC00061CF47F04730E832E8320F0B3F6E65964F
:100DD00047B4EDEF06F0EFEF06F0F9EF06F07A0E0C
:100DE0003F24D96EDA6A000EDA220001DF7001EFCB
:100DF00007F07C0E3F24D96EDA6A000EDA22000179
:100E0000DF703F50D8A407EF07F009EF07F00DEFB0
:100E100007F0A3EC11F01BEF07F0000E0E6E720E40
:100E20000D6E470E0F6E000E106E000E126E000E4D
:100E3000116EAFEC12F01F2A030E1F6422EF07F0B1
:100E400024EF07F0D9EF06F0A49412007EC088F0DA
:100E50007FC089F0000182518311D8A432EF07F0DE
:100E600034EF07F036EF07F0E1EF07F088C0D9FF65
:100E700089C0DAFF80C0DFFF82518825846F8351EB
:100E80008921856FFF0E8425D96EFF0E8521DA6ECC
:100E900080C0DFFF835107E1030E825DD8B053EFBE
:100EA00007F055EF07F057EF07F0E1EF07F020EEFE
:100EB00001F08851D9268951DA2280C0DFFF20EE67
:100EC00002F08851D9268951DA2280C0DFFF825191
:100ED0008825846F83518921856FFE0E8425D96E04
:100EE000FF0E8521DA6E80C0DFFF82518825846F76
:100EF00083518921856FFD0E8425D96EFF0E8521D2
:100F0000DA6E80C0DFFF835107E1070E825DD8B043
:100F10008CEF07F08EEF07F090EF07F0E1EF07F0AE
:100F200020EE03F08851D9268951DA2280C0DFFFF4
:100F300082518825846F83518921856FFC0E842519
:100F4000D96EFF0E8521DA6E80C0DFFF835107E185
:100F5000090E825DD8B0AFEF07F0B1EF07F0B3EF45
:100F600007F0E1EF07F088C084F089C085F0841FA6
:100F7000851F844B852B030E8415866F876B8651E6
:100F80008827875189238651825F8751835BFC0EB6
:100F90008217FF0E8317D8EF07F088C0D9FF89C0EA
:100FA000DAFF80C0DFFF8207D8A08307884B892B38
:100FB00082518311D8A4DFEF07F0E1EF07F0CDEF06
:100FC00007F0120001C00BF002C00CF00550061033
:100FD000D8A4EDEF07F0EFEF07F0F1EF07F09CEF8B
:100FE00008F00BC0D9FF0CC0DAFF03C0DFFF0550CB
:100FF0000B24076E06500C20086EFF0E0724D96ED6
:10100000FF0E0820DA6E03C0DFFF065007E1030E73
:10101000055CD8B00EEF08F010EF08F012EF08F002
:101020009CEF08F020EE01F00B50D9260C50DA228C
:1010300003C0DFFF20EE02F00B50D9260C50DA225D
:1010400003C0DFFF05500B24076E06500C20086E0E
:10105000FE0E0724D96EFF0E0820DA6E03C0DFFFF4
:1010600005500B24076E06500C20086EFD0E072459
:10107000D96EFF0E0820DA6E03C0DFFF065007E1CD
:10108000070E055CD8B047EF08F049EF08F04BEFCA
:1010900008F09CEF08F020EE03F00B50D9260C501E
:1010A000DA2203C0DFFF05500B24076E06500C2028
:1010B000086EFC0E0724D96EFF0E0820DA6E03C0FE
:1010C000DFFF065007E1090E055CD8B06AEF08F0B3
:1010D0006CEF08F06EEF08F09CEF08F00BC007F023
:1010E0000CC008F0071E081E074A082A030E071442
:1010F000096E0A6A09500B260A500C220950055E37
:101100000A50065AFC0E0516FF0E061693EF08F05D
:101110000BC0D9FF0CC0DAFF03C0DFFF0506D8A063
:1011200006060B4A0C2A05500610D8A49AEF08F0C0
:101130009CEF08F088EF08F01200800E04012019DF
:10114000D8A4A5EF08F0A7EF08F056EF09F0C00EFD
:1011500000016B6F3CEF09F0B10E0001686F080EE3
:10116000696F000E6D6F120E6C6F56EF09F0225111
:10117000D8A4BDEF08F0BFEF08F000EF09F022514E
:10118000020D070EF324F66E080EF420F76E090028
:10119000F5CF68F00A00F5CF69F0020E000168256E
:1011A000016E000E6921026E01C0F6FF02C0F7FF5A
:1011B000F86A070EF76403D00800F55005D0F6CFA3
:1011C000E1FFF7CFE2FFE75000016C6F030E6825E7
:1011D000016E000E6921026E01C0F6FF02C0F7FF2A
:1011E000F86A070EF76403D00800F55005D0F6CF73
:1011F000E1FFF7CFE2FFE75000016D6F56EF09F016
:10120000000E00016B6F56EF09F0030E22610BEF29
:1012100009F00DEF09F032EF09F02251020D010E35
:10122000F324F66E080EF420F76E0900F5CF68F08F
:101230000A00F5CF69F068C0F6FF69C0F7FFF86AE9
:10124000070EF76403D00800F55005D0F6CFE1FF94
:10125000F7CFE2FFE750016E015000016C6F6D6B3C
:1012600056EF09F0000E00016B6F56EF09F0000E0B
:1012700000016B6F56EF09F004012351016E026A01
:101280000250000AD8B447EF09F037EF09F00150D7
:10129000010AD8B4ACEF08F0030AD8B4B7EF08F0ED
:1012A000010AD8B405EF09F037EF09F01200040184
:1012B00020511F0BE806D8B460EF09F062EF09F087
:1012C00064EF09F00FEF0AF02451D8B46AEF09F087
:1012D0006CEF09F06EEF09F00FEF0AF0060E21191E
:1012E000D8A475EF09F077EF09F0B4EF09F09BEFA0
:1012F00009F04904D8A47FEF09F081EF09F0B4EFB9
:1013000009F07D0E0001686F080E696F000E6D6FA9
:10131000090E6C6FC00E6B6FB4EF09F0940E0001F4
:10132000686F080E696F000E6D6F1D0E6C6FC00E3A
:101330006B6FB4EF09F02351016E026A0250000A8C
:10134000D8B4A5EF09F0B4EF09F00150210AD8B4E0
:1013500079EF09F0030AD8B48EEF09F0010AD8B486
:10136000B4EF09F0B4EF09F004012039E832030BBF
:10137000E806D8B4BEEF09F0C0EF09F0EAEF09F0D3
:101380000FEF0AF0460E0001686F000E696F000E45
:101390006D6F010E6C6FC10E6B6F0FEF0AF0800E58
:1013A00000016B6F23C446F00FEF0AF0450E0001F9
:1013B000686F000E696F000E6D6F010E6C6F810E0D
:1013C0006B6F0FEF0AF0800E00016B6F22C445F0C7
:1013D0000FEF0AF02151016E026A0250000AD8B4E0
:1013E000F4EF09F00FEF0AF00150010AD8B40FEF43
:1013F0000AF0030AD8B4C2EF09F0010AD8B4D6EF54
:1014000009F00A0AD8B40FEF0AF0030AD8B4CFEFF4
:1014100009F0010AD8B4E3EF09F00FEF0AF0120067
:101420000001866F00017E51D8B419EF0AF01BEF5E
:101430000AF029EF0AF08651020D6E0EF324D96EE0
:10144000000EF420DA6EDECF87F0DDCF88F035EFC6
:101450000AF08651020D720EF324D96E000EF420AC
:10146000DA6EDECF87F0DDCF88F087518811D8A4FF
:101470003CEF0AF03EEF0AF044EF0AF0000E7E6FF8
:10148000000E7F6FB6EF0AF020EE03F08751D926E9
:101490008851DA228051DF6E20EE02F08751D92682
:1014A0008851DA227FC0DFFF20EE01F08751D92674
:1014B0008851DA2281C0DFFF87C0D9FF88C0DAFFF8
:1014C000400EDF1687C0D9FF88C0DAFF000EDB862A
:1014D00087C0D9FF88C0DAFF000EDB8E7E51D8B4FA
:1014E00074EF0AF076EF0AF095EF0AF08651020DDC
:1014F0006E0EF324D96E000EF420DA6EDECF82F089
:10150000DDCF83F0040E8219846F8351856F86517D
:10151000020D6E0EF324D96E000EF420DA6E84C034
:10152000DEFF85C0DDFFB2EF0AF08651020D720EBC
:10153000F324D96E000EF420DA6EDECF82F0DDCF18
:1015400083F0040E8219846F8351856F8651020DDA
:10155000720EF324D96E000EF420DA6E84C0DEFF22
:1015600085C0DDFF87C07EF088C07FF01200A394A5
:10157000000E676E000E656E000E6A6E6B0E000147
:101580007E6F0F0E7F6F000E816F000E806F000E5A
:10159000836F010E826F26EC07F0160E626E9F0EAF
:1015A000666E7B0E646E000E00018A6F8A51040D18
:1015B000000EF324D96E040EF420DA6EDE6ADE6AC1
:1015C000DE6ADD6A8A2B070E8A65E9EF0AF0EBEF27
:1015D0000AF0D6EF0AF0608C000E636E6098609C93
:1015E0006596000E6B6F000E636F000E656F000E48
:1015F000646F65B6FEEF0AF000EF0BF0F0EF0AF053
:10160000010E3B6E010E3A6E000E396E000E386E02
:10161000000E406E000E8A6F8A51020D6E0EF3248A
:10162000D96E000EF420DA6E000EDE6E000EDD6E56
:101630008A51020D720EF324D96E000EF420DA6E78
:10164000000EDE6E000EDD6E7C0E8A25D96EDA6A23
:10165000000EDA22000EDF6E7A0E8A25D96EDA6A63
:10166000000EDA22000EDF6E8A2B010E8A653BEF38
:101670000BF03DEF0BF00CEF0BF0080E6E6F040E4D
:101680006F6F160E6A6E040E0401036F200E026F58
:10169000080E016F040E006F008F000E496E000EE1
:1016A0002A6E000E2B6E000E2C6E000E2D6E000E9C
:1016B000376E000E446E1200A394000E676E000E8B
:1016C000656E000E6A6E6B0E016E0F0E026E000EDE
:1016D000046E000E036E000E066E010E056EE2EC47
:1016E00007F0160E626E9F0E666E7B0E646E000E25
:1016F0000D6E0D50040D000EF324D96E040EF4206F
:10170000DA6EDE6ADE6ADE6ADD6A0D2A070E0D64B5
:101710008CEF0BF08EEF0BF079EF0BF0608C000E7E
:10172000636E6098609C6596000E00016B6F000E02
:10173000636F000E656F000E646F65B6A2EF0BF06D
:10174000A4EF0BF093EF0BF0010E3B6E010E3A6E1F
:10175000000E396E000E386E000E406E000E0D6EDB
:101760000D50020D6E0EF324D96E000EF420DA6EC9
:10177000000EDE6E000EDD6E0D50020D720EF324B3
:10178000D96E000EF420DA6E000EDE6E000EDD6EF5
:101790007C0E0D24D96EDA6A000EDA22000EDF6E9E
:1017A0007A0E0D24D96EDA6A000EDA22000EDF6E90
:1017B0000D2A010E0D64DFEF0BF0E1EF0BF0B0EF3F
:1017C0000BF0080E00016E6F040E6F6F160E6A6E3E
:1017D000040E0401036F200E026F080E016F040E49
:1017E000006F008F000E496E000E2A6E000E2B6EE9
:1017F000000E2C6E000E2D6E000E376E000E446E25
:101800001200096E0150D8B408EF0CF00AEF0CF08A
:1018100018EF0CF00950020D6E0EF324D96E000E75
:10182000F420DA6EDECF0AF0DDCF0BF024EF0CF0FF
:101830000950020D720EF324D96E000EF420DA6EF8
:10184000DECF0AF0DDCF0BF00A500B10D8A42BEF3F
:101850000CF02DEF0CF033EF0CF0000E016E000ECB
:10186000026EA5EF0CF020EE03F00A50D9260B50C3
:10187000DA220350DF6E20EE02F00A50D9260B5018
:10188000DA2202C0DFFF20EE01F00A50D9260B5009
:10189000DA2204C0DFFF0AC0D9FF0BC0DAFF400E16
:1018A000DF160AC0D9FF0BC0DAFF000EDB860AC0C4
:1018B000D9FF0BC0DAFF000EDB8E0150D8B463EF06
:1018C0000CF065EF0CF084EF0CF00950020D6E0E79
:1018D000F324D96E000EF420DA6EDECF05F0DDCFF2
:1018E00006F0040E0518076E0650086E0950020D2A
:1018F0006E0EF324D96E000EF420DA6E07C0DEFF00
:1019000008C0DDFFA1EF0CF00950020D720EF324A8
:10191000D96E000EF420DA6EDECF05F0DDCF06F0D2
:10192000040E0518076E0650086E0950020D720E5F
:10193000F324D96E000EF420DA6E07C0DEFF08C073
:10194000DDFF0AC001F00BC002F0120020EE01F032
:101950003250D9263350DA22DF50026E0250000195
:10196000645D000E6559D8B0B8EF0CF0BAEF0CF01A
:10197000BCEF0CF064C002F00250645F000E655BC7
:10198000000E016ED3EF0CF0280E0124D96EDA6A36
:10199000040EDA2260C0E1FF61C0E2FFDFCFE7FFA3
:1019A000604B612B012A0250015CD8A0DAEF0CF0E9
:1019B000DCEF0CF0C4EF0CF064516511D8B4E3EF28
:1019C0000CF0E5EF0CF01EEF0DF020EE01F03050C2
:1019D000D9263150DA22080EDF6E20EE02F03050A8
:1019E000D9263150DA22280EDE6E040EDD6E32C0AA
:1019F000D9FF33C0DAFFDFBC00EF0DF002EF0DF0CE
:101A000010EF0DF030C0D9FF31C0DAFF480EDF6EA5
:101A100030C0D9FF31C0DAFF000EDB8E47EF0DF08A
:101A200030C0D9FF31C0DAFF080EDF6E30C0D9FFF9
:101A300031C0DAFF000EDB8E47EF0DF020EE01F033
:101A40003050D9263150DA22080EDF6E20EE02F037
:101A50003050D9263150DA22200EDE6E040EDD6EB3
:101A600030C0D9FF31C0DAFF040EDF6E30C0D9FFBD
:101A700031C0DAFF000EDB8E639F3C50D8A443EFE9
:101A80000DF045EF0DF047EF0DF0B5EC10F0120042
:101A9000609800016BBF4FEF0DF051EF0DF096EF26
:101AA0000DF063AF56EF0DF058EF0DF06AEF0DF04B
:101AB000020E426E3850D8A460EF0DF062EF0DF0C8
:101AC00064EF0DF0FFEC11F0000E3A6E000E3B6E6D
:101AD000E8EF0DF020EE01F03050D9263150DA2237
:101AE000080EDF6E20EE02F03050D9263150DA2297
:101AF000200EDE6E040EDD6E30C0D9FF31C0DAFF7D
:101B00000C0EDF6E30C0D9FF31C0DAFF000EDB8E65
:101B10006EC0D9FF6FC0DAFF040EDF6E6EC0D9FF52
:101B20006FC0DAFF000EDB8EE8EF0DF0040120AF8E
:101B30009CEF0DF09EEF0DF0BAEF0DF0010E426E2E
:101B40003950D8A4A6EF0DF0A8EF0DF0AAEF0DF0D4
:101B5000FFEC11F0000E3A6E000E3B6E3C50D8A424
:101B6000B4EF0DF0B6EF0DF0E8EF0DF0B5EC10F0BE
:101B7000E8EF0DF0020E426E20EE01F03050D92653
:101B80003150DA22080EDF6E20EE02F03050D926F6
:101B90003150DA22200EDE6E040EDD6E30C0D9FF29
:101BA00031C0DAFF040EDF6E30C0D9FF31C0DAFF7A
:101BB000000EDB8E000E3A6E000E3B6E3C50D8A439
:101BC000E4EF0DF0E6EF0DF0E8EF0DF0B6EF0DF0FD
:101BD0001200200E4460EFEF0DF0F1EF0DF0F3EF87
:101BE0000DF083EF0EF060A2F8EF0DF0FAEF0DF0BC
:101BF000FCEF0DF083EF0EF0000178517911D8B4AD
:101C000004EF0EF006EF0EF011EF0EF078C0D9FFE2
:101C100079C0DAFFDFBE0FEF0EF011EF0EF083EFA9
:101C20000EF0000E8C6F000E8B6F400E8B25D96E60
:101C3000050E8C21DA6E000EDF6E8B4B8C2B8C51D7
:101C400009E1400E8B5DD8A028EF0EF02AEF0EF0D0
:101C500015EF0EF05CEF0EF076517711D8B433EF3C
:101C60000EF035EF0EF040EF0EF076C0D9FF77C0E2
:101C7000DAFFDFBE3EEF0EF040EF0EF073EF0EF036
:101C8000800E0501406F410E00017E6F050E7F6FD3
:101C9000D3EC13F0010E00017E6F400E7F6F050E36
:101CA000806F400E816F010E10EC0AF07EC076F05E
:101CB0007FC077F073EF0EF0050100510001896FCE
:101CC0008A6B8A51000AD8B468EF0EF073EF0EF0F9
:101CD0008951800AD8B42CEF0EF0010AD8B473EF02
:101CE0000EF073EF0EF0000E00017E6F000E7F6F9E
:101CF000050E806F400E816F010E10EC0AF07EC061
:101D000078F07FC079F0120004012039E832030B2B
:101D10000009D8B48EEF0EF090EF0EF0DDEF0EF06C
:101D200016EF0FF000016B8F080E446E16EF0FF0E8
:101D30009DEC08F016EF0FF02EEC11F016EF0FF0FF
:101D4000490E0001686F000E696F6B81010E6C6FA8
:101D50006B8F16EF0FF017EC0FF016EF0FF064EC2F
:101D600004F016EF0FF0480E24250001686F696B30
:101D7000000E69236B81010E6C6F6B8F16EF0FF0F5
:101D800000016B8F480E04012425D96EDA6A000E1B
:101D9000DA2222C4DFFF16EF0FF0000E0E6E020EE5
:101DA0000D6E000E0F6E000E106E000E126E000E05
:101DB000116EAFEC12F016EF0FF021511C6E1D6A80
:101DC0001D50000AD8B4E7EF0EF016EF0FF01C50CC
:101DD000000AD8B4ABEF0EF0010AD8B4AFEF0EF0A2
:101DE000020AD8B4AFEF0EF0060AD8B492EF0EF0A4
:101DF000030AD8B498EF0EF0010AD8B4CDEF0EF074
:101E00000F0AD8B4A0EF0EF0010AD8B49CEF0EF080
:101E1000030AD8B4B3EF0EF0010AD8B4C0EF0EF045
:101E2000070AD8B416EF0FF016EF0FF01200000EED
:101E30000401286F000E296F7EEF0FF000016B8FF9
:101E40004104D8A426EF0FF028EF0FF098EF0FF021
:101E50000401288398EF0FF000016B8F98EF0FF0CB
:101E600000016B8F040124510F0B0009D8B43BEF24
:101E70000FF03DEF0FF098EF0FF024BF42EF0FF09F
:101E800044EF0FF055EF0FF024510F0B016E01508E
:101E9000020D720EF324D96E000EF420DA6EDECF3E
:101EA00003F0DDCF04F064EF0FF024510F0B016E4F
:101EB0000150020D6E0EF324D96E000EF420DA6E7E
:101EC000DECF03F0DDCF04F003C0D9FF04C0DAFF9A
:101ED000DFAE6DEF0FF06FEF0FF098EF0FF003C074
:101EE000D9FF04C0DAFFDFA478EF0FF07AEF0FF02C
:101EF00098EF0FF0010E286F98EF0FF020511F0B95
:101F0000016E026A0250000AD8B489EF0FF098EF10
:101F10000FF00150000AD8B41EEF0FF0010AD8B438
:101F20002CEF0FF0030AD8B430EF0FF098EF0FF05A
:101F300000016BAF9EEF0FF0A0EF0FF0A7EF0FF0D7
:101F4000280E686F040E696F6B81020E6C6F1200B1
:101F5000080E016E00016D5107E1080E6C5DD8B0EE
:101F6000B4EF0FF0B6EF0FF0CEEF0FF06CC001F052
:101F70004350D8A4BEEF0FF0C0EF0FF0C4EF0FF046
:101F8000010E436ECEEF0FF04304D8A4CAEF0FF05A
:101F9000CCEF0FF0CEEF0FF0020E436E01506C5FEE
:101FA000000E6D5B20EE01F06E51D9266F51DA22E2
:101FB00001C0DFFF280E2E6E040E2F6E6BB1E3EF13
:101FC0000FF0E5EF0FF027EF10F002EF10F068C010
:101FD000F6FF69C0F7FFF86A2EC0D9FF2FC0DAFFFD
:101FE000070EF76403D00800F55005D0F6CFE1FFE7
:101FF000F7CFE2FFE750DF6E0001684B692B2E4AF6
:102000002F2A01060150D8A408EF10F00AEF10F0B3
:10201000E7EF0FF02FEF10F068C0F6FF69C0F7FF91
:10202000F86A2EC0D9FF2FC0DAFF070EF76403D07D
:102030000800F55005D0F6CFE1FFF7CFE2FFE750FB
:10204000DF6E0001684B692B2E4A2F2A01060150D2
:10205000D8A42DEF10F02FEF10F00CEF10F01200BD
:102060006EC0D9FF6FC0DAFF0001000EDFBC010EA9
:10207000026E040E6E196E6F6F516F6F080E44186A
:10208000D8A445EF10F047EF10F059EF10F004011D
:1020900022517F0B636E6350D8B451EF10F053EFB1
:1020A00010F057EF10F0100E446E59EF10F0040EC0
:1020B000446E4204D8A45FEF10F061EF10F0A9EF76
:1020C00010F0000120EE02F06E51D9266F51DA2295
:1020D000280EDE6E040EDD6EA8EC0FF0020E431823
:1020E000D8A475EF10F077EF10F085EF10F06EC008
:1020F000D9FF6FC0DAFF040EDF6E6EC0D9FF6FC06C
:10210000DAFF000EDB8EB4EF10F00250D8A48BEF94
:1021100010F08DEF10F09BEF10F06EC0D9FF6FC084
:10212000DAFF480EDF6E6EC0D9FF6FC0DAFF000E17
:10213000DB8EB4EF10F06EC0D9FF6FC0DAFF080E6F
:10214000DF6E6EC0D9FF6FC0DAFF000EDB8EB4EF1A
:1021500010F0000163AFAFEF10F0B1EF10F0B2EF8D
:1021600010F0639F000E426E12003B50D8A4BBEFEC
:1021700010F0BDEF10F02DEF11F0010E3B6E3A5054
:10218000D8A4C5EF10F0C7EF10F02DEF11F0010E3D
:102190003A6E020E4218D8A4D0EF10F0D2EF10F031
:1021A000E9EF10F0000120EE01F06E51D9266F51D9
:1021B000DA22000EDF6E6EC0D9FF6FC0DAFF480E64
:1021C000DF6E6EC0D9FF6FC0DAFF000EDB8E2DEF21
:1021D00011F04204D8A4EFEF10F0F1EF10F02DEF62
:1021E00011F0000E3E6E20EE01F03250D926335031
:1021F000DA22080EDF6E20EE02F03250D92633507C
:10220000DA22200EDE6E040EDD6E32C0D9FF33C03E
:10221000DAFF040EDF6E32C0D9FF33C0DAFF000EE2
:10222000DB8E010E3E6E20EE01F03050D92631508B
:10223000DA22080EDF6E20EE02F03050D92631503F
:10224000DA22200EDE6E040EDD6E30C0D9FF31C002
:10225000DAFF800EDF6E2DEF11F0120000016B8FA0
:102260006B0E016E0F0E026E000E046E000E036EFA
:10227000000E066E010E056EE2EC07F0000E016E18
:10228000040E026E000E046E000E036E000E066E4B
:10229000200E056EE2EC07F0608C000E156E7C0ED1
:1022A0001524D96EDA6A000EDA22000EDF6E7A0E7D
:1022B0001524D96EDA6A000EDA22000EDF6E152AB6
:1022C000010E156466EF11F068EF11F04FEF11F099
:1022D000480E016E000E026E000E046E000E036EBC
:1022E000000E066E010E056EE2EC07F0609C080E13
:1022F00000016E6F040E6F6F000E326E040E336EAF
:1023000032C030F033C031F022C449F04950D8A473
:102310008CEF11F08EEF11F092EF11F0100E446E71
:10232000A2EF11F0000E0E6E010E0D6E490E0F6E33
:10233000000E106E000E126E010E116EAFEC12F058
:10234000200E446E12002D0E3D6E47C01EF0FD0E95
:102350001E16D8A4AEEF11F0B0EF11F0F2EF11F0AD
:1023600047C01EF0D8901E323F0E1E161E50040DA0
:10237000000EF324326E040EF420336E32C030F0BF
:1023800033C031F0040E3018306E3150316E32C02F
:10239000D9FF33C0DAFFDF30E8320F0B0D0AD8A4C3
:1023A000D4EF11F0D6EF11F0EEEF11F0200E016E28
:1023B000040E026E20EE02F03250D9263350DA229B
:1023C000DECF03F0DDCF04F0000E066E080E056EC2
:1023D00078EC14F045EC13F0FEEF11F00EEC14F075
:1023E000FEEF11F04750FD0B040AD8A4FAEF11F0EC
:1023F000FCEF11F0FEEF11F030EC10F01200000EC7
:10240000396E000E386E020E4218D8A40AEF12F090
:102410000CEF12F02CEF12F020EE01F03050D92624
:102420003150DA22080EDF6E20EE02F03050D9264D
:102430003150DA22280EDE6E040EDD6E30C0D9FF78
:1024400031C0DAFF480EDF6E30C0D9FF31C0DAFF8D
:10245000000EDB8E58EF12F000016C510401265D76
:1024600000016D5104012759D8B039EF12F03BEF4C
:1024700012F03FEF12F026C46CF027C46DF0A8EC08
:102480000FF0000120EE02F06E51D9266F51DA22D2
:10249000280EDE6E040EDD6E6EC0D9FF6FC0DAFF4F
:1024A000480EDF6E6EC0D9FF6FC0DAFF000EDB8E04
:1024B0001200066E000E076E040E086E0150026ECA
:1024C000036AD890023603360650046E056AD89027
:1024D00004360536D89004360536025004260350DB
:1024E0000522D89004360536D890043605360450B7
:1024F00007260550082207C0D9FF08C0DAFFDF9E73
:102500000150D8A486EF12F088EF12F096EF12F087
:102510000650020D720EF324D96E000EF420DA6E0E
:1025200007C0DEFF08C0DDFFA2EF12F00650020D6B
:102530006E0EF324D96E000EF420DA6E07C0DEFFB3
:1025400008C0DDFF07C0D9FF08C0DAFFDF9C20EE1E
:1025500004F00750D9260850DA22DF8C1200C3EFAE
:1025600012F0010E8DEC13F0FCEF12F0020E8DEC68
:1025700013F0FCEF12F02BEC15F0FCEF12F057EC1F
:1025800009F0FCEF12F00DC013F00EC014F014505F
:10259000000AD8B4D2EF12F07F0AD8B4F5EF12F0E7
:1025A000FCEF12F01350010AD8B4BBEF12F0030A8B
:1025B000D8B4FCEF12F0010AD8B4BFEF12F0060A4B
:1025C000D8B4FCEF12F0770AD8B4FCEF12F0010A8D
:1025D000D8B4FCEF12F0070AD8B4B6EF12F0010A33
:1025E000D8B4B1EF12F0FCEF12F01350FF0AD8B4D8
:1025F000FCEF12F0FCEF12F012000001806F2AEFE6
:1026000013F0800E9B6E700ED36E100ED26ED2AE93
:102610000CEF13F00EEF13F007EF13F0900EB56E02
:102620000F0E9216030E92123C0E9312F90E941690
:10263000C00E9412C280F30EC116FC0EC116C09ECD
:10264000C050C70B1009C06EC050F80B0609C06E11
:1026500044EF13F0000180517E6F7F6B7F51000AC1
:10266000D8B435EF13F044EF13F07E51000AD8B41C
:1026700001EF13F0010AD8B444EF13F0030AD8B401
:1026800044EF13F044EF13F01200000E436E000EFF
:102690003C6E000E396E000E386E000E3E6E000E5F
:1026A000426E6EC0D9FF6FC0DAFF7F0EDF16040ED8
:1026B00000016E196E6F6F516F6F6EC0D9FF6FC0E2
:1026C000DAFF7F0EDF16040E6E196E6F6F516F6F9B
:1026D00030C0D9FF31C0DAFF7F0EDF16000E6B6FFE
:1026E000000E6D6F000E6C6F000E636F000E656F55
:1026F000000E646F84EC0EF0000E0E6E030E0D6E75
:10270000000E0F6E000E106E000E126E000E116E97
:10271000AFEC12F048EC0DF01200036EB9EF13F0BD
:10272000800E9B6E700ED36E100ED26ED2AE9BEFEB
:1027300013F09DEF13F096EF13F0900EB56E0F0EA1
:102740009216030E92123C0E9312F90E9416C00EBE
:102750009412C280F30EC116FC0EC116C09EC0506A
:10276000C70B1009C06EC050F80B0609C06ED2EF3F
:1027700013F00350016E026A0250000AD8B4C3EF8E
:1027800013F0D2EF13F00150000AD8B490EF13F019
:10279000010AD8B4D2EF13F0030AD8B4D2EF13F081
:1027A000D2EF13F012004AC081F04BC082F04CC04F
:1027B00083F04DC084F0000E0001866F000E856F1F
:1027C000810E8525D96E000E8621DA6EDF50806F6E
:1027D00080478047C2508019830B8019C26EC28225
:1027E000C2B2F5EF13F0F7EF13F0F0EF13F00001C2
:1027F00085517E25D96E86517F21DA6EC4CFDFFFE9
:10280000854B862B865109E1040E855DD8A00BEF20
:1028100014F00DEF14F0E0EF13F01200020E421866
:10282000D8A415EF14F017EF14F01BEF14F0A6EC7A
:102830000CF047EF14F0000E426E3E50D8A423EF88
:1028400014F025EF14F045EF14F020EE01F03050B5
:10285000D9263150DA22080EDF6E20EE02F0305019
:10286000D9263150DA22200EDE6E040EDD6E30C025
:10287000D9FF31C0DAFF0C0EDF6E30C0D9FF31C096
:10288000DAFF000EDB8E47EF14F0000E3E6E1200F2
:102890006AA04DEF14F04FEF14F076EF14F032C051
:1028A000D9FF33C0DAFF800EDE18D8A45AEF14F037
:1028B0005CEF14F075EF14F06EC0D9FF6FC0DAFF53
:1028C000840EDE18D8A467EF14F069EF14F075EFEA
:1028D00014F032C0D9FF33C0DAFF0C0EDF6E32C005
:1028E000D9FF33C0DAFF000EDB8E6A90659A1200C2
:1028F00003C009F004C00AF001C007F002C008F0EC
:1029000092EF14F009C0D9FF0AC0DAFFDF500B6E56
:10291000094A0A2A07C0D9FF08C0DAFF0BC0DFFF47
:10292000074A082A0506D8A00606052806E1062853
:10293000D8A49DEF14F09FEF14F082EF14F0120072
:102940000C6E09A4A6EF14F0A8EF14F0ADEF14F08C
:10295000000E016E0C5059EC12F009A2B2EF14F007
:10296000B4EF14F0B9EF14F0010E016E0C5059ECF5
:1029700012F06A0E0C240A6E0B6A0F0E0B220AC0AC
:10298000D9FF0BC0DAFF09C0DFFF1200060EF66E9A
:102990002B0EF76E000EF86E00EE4AF010EE04F00B
:1029A0000900F5CFEEFFE550E150FAE100EE60F0EE
:1029B0001E0EEE6AE806FDE100EE2AF0200EEE6A39
:1029C000E806FDE14E904E92000EF86E000174EFA5
:1029D00015F04450D8A4EFEF14F0F1EF14F00BEF22
:1029E00015F0000E606E000E646E160E626E9F0E85
:1029F000666E7B0E646ED08EA584A384F28E02EF89
:102A000015F0608660A607EF15F009EF15F001EFED
:102A100015F0010E446E1200000E406E000E0E6E98
:102A2000740E0D6E000E0F6E000E106E000E126E04
:102A3000000E116EAFEC12F06092649421EF15F06D
:102A4000659465B426EF15F028EF15F020EF15F02A
:102A5000000E376E1200000E0001766F000E776FC9
:102A60001E0E096E010EA0EC14F0000E016E000E99
:102A7000026E050E036E400E046E010E01EC0CF0AA
:102A800001C078F002C079F01200010E2A26000E73
:102A90002B222C222D224050D8A451EF15F053EFB9
:102AA00015F05DEF15F0372A3750D8A45AEF15F01E
:102AB0005CEF15F05DEF15F03768120064846598DF
:102AC0006082010E406E000E376E000E0E6E750EA7
:102AD0000D6E000E0F6E000E106E000E126E000EC8
:102AE000116EAFEC12F01200000EFDEC12F0B7EC1C
:102AF0000AF0E9EC14F085EC15F0E9EC0DF07BEF51
:0C2B000015F031EF00F00001121312007C
:020000040020DA
:08000000FFFFFFFFFFFFFFFF00
:020000040030CA
:0E00000021081F3EFFD181FF03C003E0034033
:00000001FF
